:020000040000FA
:100000000C9463000C948B000C948B000C948B006C
:100010000C948B000C948B000C948B000C948B0034
:100020000C948B000C948B000C948B000C948B0024
:100030000C948B000C948B000C948B000C948B0014
:100040000C94EB040C948B000C94B9040C94930462
:100050000C948B000C948B000C948B000C948B00F4
:100060000C948B000C948B000000000024002700EF
:100070002A0000000000250028002B0000000008D6
:10008000000201000003040700000000000000005F
:1000900000000000230026002900040404040404D6
:1000A0000404020202020202030303030303010227
:1000B00004081020408001020408102001020408F6
:1000C00010207A05D60711241FBECFEFD8E0DEBF7F
:1000D000CDBF21E0AAE2B1E001C01D92AC3FB20762
:1000E000E1F711E0A0E0B1E0EAE2F5E102C005903D
:1000F0000D92AA32B107D9F710E0C2E6D0E004C0F1
:100100002197FE010E945108C136D107C9F70E940C
:10011000FD050C94880A0C940000AF92BF92CF9218
:10012000DF92EF92FF920F931F93CF93DF936C01B7
:100130007B018B01040F151FEB015E01AE18BF0898
:10014000C017D10759F06991D601ED91FC9101904A
:10015000F081E02DC6010995892B79F7C501DF9162
:10016000CF911F910F91FF90EF90DF90CF90BF90B4
:10017000AF900895FC01538D448D252F30E0842FDE
:1001800090E0821B930B541710F0CF9608950197BF
:100190000895FC01918D828D981761F0A28DAE0FAC
:1001A000BF2FB11D5D968C91928D9F5F9F73928F33
:1001B00090E008958FEF9FEF0895FC01918D828D5F
:1001C000981731F0828DE80FF11D858D90E008952C
:1001D0008FEF9FEF0895FC01918D228D892F90E084
:1001E000805C9F4F821B91098F739927089585E347
:1001F00091E00E94EB0021E0892B09F420E0822F9E
:10020000089580E090E0892B29F00E94F700811189
:100210000C9400000895FC01A48DA80FB92FB11D06
:10022000A35ABF4F2C91848D90E001968F7399272C
:10023000848FA689B7892C93A089B1898C9183700A
:1002400080648C93938D848D981306C00288F38903
:10025000E02D80818F7D80830895EF92FF920F9330
:100260001F93CF93DF93EC0181E0888F9B8D8C8D62
:1002700098131AC0E889F989808185FF15C09FB756
:10028000F894EE89FF896083E889F9898081837019
:10029000806480839FBF81E090E0DF91CF911F91C8
:1002A0000F91FF90EF900895F62E0B8D10E00F5FE9
:1002B0001F4F0F731127E02E8C8D8E110CC00FB6BF
:1002C00007FCFACFE889F989808185FFF5CFCE0157
:1002D0000E940B01F1CFEB8DEC0FFD2FF11DE35AC6
:1002E000FF4FF0829FB7F8940B8FEA89FB898081DA
:1002F0008062CFCFCF93DF93EC01888D8823B9F054
:10030000AA89BB89E889F9898C9185FD03C0808120
:1003100086FD0DC00FB607FCF7CF8C9185FFF2CF9D
:10032000808185FFEDCFCE010E940B01E9CFDF91E7
:10033000CF91089590E0FC01E458FF4F2491FC0117
:10034000E255FF4F3491FC01E656FF4FE491EE2356
:10035000C9F0222339F0233001F1A8F4213019F13A
:10036000223029F1F0E0EE0FFF1FEE58FF4FA5916C
:10037000B4918FB7F894EC91611126C030953E236B
:100380003C938FBF08952730A9F02830C9F024305E
:1003900049F7809180008F7D03C0809180008F7726
:1003A00080938000DFCF84B58F7784BDDBCF84B5A9
:1003B0008F7DFBCF8091B0008F778093B000D2CF3C
:1003C0008091B0008F7DF9CF3E2BDACFCF93DF93B2
:1003D000EC018091DA019091DB01029749F4C13080
:1003E000D10509F43BC06CF560E0209709F437C0F3
:1003F0008091DA019091DB01049749F4C130D10575
:1004000009F45CC00CF037C0209709F442C0809119
:10041000DA019091DB01059709F0E5C0CA30D105FA
:1004200008F0E1C0FE01E95EFD4F0C945108760230
:1004300082029302A902C402C602CD02D902EA02D4
:10044000F102C230D105A9F060E0C330D10581F6D8
:100450008091DE010E949A0160E006C061E0809117
:10046000DE010E949A0161E08091E0010E949A0100
:10047000BFCF61E0EDCFC230D10539F1C330D10536
:1004800009F0C5CF61E08091DE010E949A0160E031
:1004900022C061E08091DE010E949A0160E08091BB
:1004A000E0010E949A0161E08091E2010E949A01BC
:1004B00060E08091E4010E949A01A9CF60E0809100
:1004C000DE010E949A0161E0EACF60E08091DE01E6
:1004D0000E949A0161E08091E0010E949A0160E02F
:1004E0008091E2010E949A0161E0E3CF60E0809197
:1004F000DE010E949A0161E08091E0010E949A0170
:1005000061E00BC060E08091DE010E949A0161E031
:100510008091E0010E949A0160E08091E2010E94D6
:100520009A0160E010C060E08091DE010E949A01B3
:1005300061E08091E0010E949A0160E08091E20117
:100540000E949A0161E08091E4010E949A0161E0B9
:1005500015C060E08091DE010E949A0161E0809107
:10056000E0010E949A0160E08091E2010E949A01FC
:1005700061E08091E4010E949A0160E08091E601CF
:10058000DF91CF910C949A0161E0E4CF61E080911A
:10059000DE010E949A0160E0E2CF61E08091DE011D
:1005A0000E949A0160E08091E0010E949A0161E05E
:1005B000DBCF61E08091DE010E949A0160E08091D2
:1005C000E0010E949A0161E08091E2010E949A019B
:1005D00060E0CFCF61E08091DE010E949A0160E08F
:1005E0008BCF60E0F8CFDF91CF910895CF93DF9369
:1005F00090E0FC01E255FF4F249186569F4FFC018D
:1006000084918823D1F090E0880F991FFC01E8596C
:10061000FF4FA591B491FC01EE58FF4FC591D491C5
:1006200061110EC09FB7F8948C91E22FE0958E2354
:100630008C932881E223E8839FBFDF91CF910895B7
:100640008FB7F894EC91E22BEC938FBFF6CF3FB7C6
:10065000F89480912F0190913001A0913101B091D7
:10066000320126B5A89B05C02F3F19F00196A11DA8
:10067000B11D3FBFBA2FA92F982F8827BC01CD01EC
:10068000620F711D811D911D42E0660F771F881F4B
:10069000991F4A95D1F708954F925F926F927F927A
:1006A0008F929F92AF92BF92EF92FF920F931F9300
:1006B000CF93DF93EC0197FF04C0CC27DD27C81B45
:1006C000D90B181619060CF061C081E090E09093E8
:1006D000D3018093D20104E010E08AE0E82EF12CEF
:1006E000209709F46FC00E9427038090E801909042
:1006F000E901A090EA01B090EB012B013C01481800
:1007000059086A087B088090D4019090D501A09088
:10071000D601B090D701481459046A047B0400F351
:100720006093E8017093E9018093EA019093EB01F3
:100730008091DC019091DD012091D2013091D301B3
:100740002130310559F501969093DD018093DC014C
:100750002091D8013091D9018217930721F410928A
:10076000DD011092DC0121978091DC019091DD0187
:100770002091DA013091DB01B7012530310509F014
:10078000B8010E941E080E94E601AACF892B09F435
:10079000A2CF1092D3011092D2019DCF892B41F4A8
:1007A0008091D8019091D9019093DD018093DC0173
:1007B0008091DC019091DD0101979093DD018093A0
:1007C000DC01D1CFDF91CF911F910F91FF90EF907E
:1007D000BF90AF909F908F907F906F905F904F9061
:1007E00008958F929F92AF92BF92CF92DF92EF9235
:1007F000FF924B015C010E9427036B017C010E9468
:1008000027036C197D098E099F09683E7340810595
:100810009105A8F321E0821A9108A108B10888EE99
:10082000C80E83E0D81EE11CF11C81149104A104C0
:10083000B10429F7FF90EF90DF90CF90BF90AF9079
:100840009F908F900895CF93DF93FC01019000203B
:10085000E9F73197AF01481B590BBC0185E391E0E3
:100860000E948D00EC0142E050E068E171E085E318
:1008700091E00E948D008C0F9D1FDF91CF91089514
:100880000F931F93CF93DF93EC0188819981009799
:1008900059F02A813B812617370730F081E0DF913C
:1008A000CF911F910F9108958B016F5F7F4F0E9431
:1008B000B209009759F0998388831B830A832C819E
:1008C0003D81232B59F7FC011082E8CF80E0E7CF70
:1008D000EF92FF920F931F93CF93DF93EC017B0175
:1008E0008A01BA010E94400428813981811114C013
:1008F0002115310519F0C9010E94290919821882B0
:100900001D821C821B821A82CE01DF91CF911F9122
:100910000F91FF90EF9008951D830C83B701C901DB
:100920000E94810AF1CF1F920F920FB60F921124ED
:100930002F933F934F935F936F937F938F939F93E7
:10094000AF93BF93EF93FF9385E391E00E940B0178
:10095000FF91EF91BF91AF919F918F917F916F9197
:100960005F914F913F912F910F900FBE0F901F906D
:1009700018951F920F920FB60F9211242F938F93F9
:100980009F93EF93FF93E0914501F09146018081A1
:10099000E0914B01F0914C0182FD1BC09081809150
:1009A0004E018F5F8F7320914F01821741F0E091CC
:1009B0004E01F0E0EB5CFE4F958F80934E01FF916E
:1009C000EF919F918F912F910F900FBE0F901F90DD
:1009D00018958081F4CF1F920F920FB60F921124B9
:1009E0002F933F938F939F93AF93BF9380912B014E
:1009F00090912C01A0912D01B0912E0130912A01EE
:100A000023E0230F2D3758F50196A11DB11D20932A
:100A10002A0180932B0190932C01A0932D01B09378
:100A20002E0180912F0190913001A0913101B09160
:100A300032010196A11DB11D80932F0190933001C9
:100A4000A0933101B0933201BF91AF919F918F91EB
:100A50003F912F910F900FBE0F901F90189526E891
:100A6000230F0296A11DB11DD2CFCF92DF92EF923C
:100A7000FF920F931F93E82FF92F05C00150110922
:100A80002109310961F1908196239417B9F305C0CA
:100A9000015011092109310911F190819623941314
:100AA000F7CFC12CD12CE12CF12C0AC08FEFC81A42
:100AB000D80AE80AF80A0C151D052E053F0579F03D
:100AC00080818623841791F36C2D7D2D8E2D9F2D93
:100AD0001F910F91FF90EF90DF90CF90089560E00D
:100AE00070E080E090E01F910F91FF90EF90DF9019
:100AF000CF900895CF93DF93E5E3F1E01382128264
:100B000088EE93E0A0E0B0E084839583A683B7836A
:100B10008AE091E09183808385EC90E095878487DB
:100B200084EC90E09787868780EC90E0918B808BB7
:100B300081EC90E0938B828B82EC90E0958B848BA0
:100B400086EC90E0978B868B118E128E138E148E0E
:100B5000E2EFF1E011821082138212821582148278
:100B600047E050E06BE171E0CF010E946804ECEED9
:100B7000F1E011821082138212821582148250E0F9
:100B800040E06AE171E0CF010E946804C2EDD1E06B
:100B90001B861A86198218821E8A1F8A188E198E41
:100BA00088EC90E09F838E8388E090E09D878C871F
:100BB00089E090E09F878E878AE090E0998B888B10
:100BC0008BE090E09B8B8A8B61E088E00E94F602CC
:100BD00061E08E850E94F60261E088890E94F6023B
:100BE00061E08A890E94F6021D8A1C8A84E090E0F6
:100BF00099878887DF91CF910895CF93DF9300D0B5
:100C0000CDB7DEB7789484B5826084BD84B5816049
:100C100084BD85B5826085BD85B5816085BD8091C7
:100C20006E00816080936E0010928100809181003F
:100C30008260809381008091810081608093810037
:100C4000809180008160809380008091B1008460F9
:100C50008093B1008091B00081608093B00080915A
:100C60007A00846080937A0080917A008260809319
:100C70007A0080917A00816080937A0080917A0076
:100C8000806880937A001092C100E0914501F09154
:100C9000460182E08083E0914101F091420110829F
:100CA000E0914301F09144018FEC808310924D015B
:100CB000E0914901F0914A0186E08083E09147018B
:100CC000F0914801808180618083E0914701F0913B
:100CD0004801808188608083E0914701F09148015C
:100CE000808180688083E0914701F0914801808194
:100CF0008F7D808361E085E00E94F60261E084E000
:100D00000E94F6022091D8013091D901032E000CE7
:100D1000440B550B60E077E883E993E00E943208CA
:100D2000CA01B90124E630E040E050E00E943208F8
:100D30002093D4013093D5014093D6015093D7012D
:100D400095E4592E2FE0E22EF12C37E3C32ED12C5F
:100D500041EB642E40E0742E5DE9A52E50E0B52EE7
:100D600060E0862E60E0962E50927C0080917A00A2
:100D7000806480937A0080917A0086FDFCCF909108
:100D800078008091790089279827892790933401EA
:100D90008093330161E082E00E94F60260E082E02D
:100DA0000E949A01C7010197F1F761E082E00E9479
:100DB0009A01C6010197F1F760E082E00E949A0172
:100DC00060E083E00E94F602F3016491F5018491F2
:100DD000E82FF0E0EE0FFF1FE057FF4F8591949151
:100DE00000E412E42FE030E0462F0E943505611543
:100DF00071058105910559F06F5F7F4F8F4F9F4FB0
:100E00009F706E3772408105910508F0C3C064EF92
:100E100071E080E090E00E94F10381E291E00E94A5
:100E2000230450E040E06AE171E08CEE91E00E9422
:100E300068048091F0019091F101892B39F0E091E3
:100E4000EC01F091ED01808181115BC050E040E048
:100E50006AE171E08CEE91E00E94680485E391E024
:100E60000E94EB00892B29F36AE070E080E090E0BB
:100E70000E94F10385E391E00E94EB001816190629
:100E8000DCF568EE73E080E090E00E94F10361E041
:100E900085E00E949A0168EE73E080E090E00E9495
:100EA000F10360E085E00E949A0185E391E00E94F1
:100EB000C90089831A820091F0011091F1010F5F3E
:100EC0001F4FB8018CEE91E00E944004882391F2FC
:100ED0002091EC013091ED018091F0019091F101B0
:100EE000BE016F5F7F4F820F931F0E94810A109394
:100EF000F1010093F001BECF85E391E00E947A01F9
:100F000098CF64EF71E080E090E00E94F10380915F
:100F1000F0019091F101892BE9F163E271E0809198
:100F2000EC019091ED010E94780A892B99F584E6F5
:100F300090E00E944C0368EE73E080E090E00E9435
:100F4000F1038CE99FEF0E944C0361E085E00E9471
:100F50009A0168EB7BE080E090E00E94F1038091D1
:100F60003301909134018536910584F064EF71E08E
:100F700080E090E00E94F10388E291E00E94230467
:100F800064EF71E080E090E00E94F10360E085E0B2
:100F90000E949A018114910409F4E6CE0E94F700A0
:100FA000882309F4E1CE0E940000DECE8091EC019E
:100FB0009091ED01009711F00E9429098091F201B2
:100FC0009091F301009711F00C94290908952F9244
:100FD0003F924F925F926F927F928F929F92AF92C9
:100FE000BF92CF92DF92EF92FF920F931F93CF9316
:100FF000DF93CDB7DEB7CA1BDB0B0FB6F894DEBFAD
:101000000FBECDBF09942A88398848885F846E84D2
:101010007D848C849B84AA84B984C884DF80EE801C
:10102000FD800C811B81AA81B981CE0FD11D0FB625
:10103000F894DEBF0FBECDBFED01089597FB072EDC
:1010400016F4009407D077FD09D00E94570807FCDA
:1010500005D03EF4909581959F4F089570956195C8
:101060007F4F0895052E97FB1EF400940E944908B7
:1010700057FD07D00E946B0807FC03D04EF40C9478
:10108000490850954095309521953F4F4F4F5F4F00
:10109000089590958095709561957F4F8F4F9F4FE4
:1010A0000895EE0FFF1F0590F491E02D0994AA1BFF
:1010B000BB1B51E107C0AA1FBB1FA617B70710F043
:1010C000A61BB70B881F991F5A95A9F78095909575
:1010D000BC01CD010895A1E21A2EAA1BBB1BFD0184
:1010E0000DC0AA1FBB1FEE1FFF1FA217B307E40707
:1010F000F50720F0A21BB30BE40BF50B661F771F5F
:10110000881F991F1A9469F760957095809590953E
:101110009B01AC01BD01CF0108950F931F93CF93A5
:10112000DF938230910510F482E090E0E091FA01C3
:10113000F091FB0130E020E0B0E0A0E0309799F4BE
:101140002115310509F44AC0281B390B243031051B
:10115000D8F58A819B816115710589F1FB01938323
:101160008283FE0111C040815181028113814817A1
:101170005907E0F04817590799F4109761F0129653
:101180000C93129713961C933296CF01DF91CF9157
:101190001F910F9108950093FA011093FB01F4CF72
:1011A0002115310551F04217530738F0A901DB0131
:1011B0009A01BD01DF01F801C1CFEF01F9CF909392
:1011C000FB018093FA01CDCFFE01E20FF31F819363
:1011D00091932250310939832883D7CF2091F80188
:1011E0003091F901232B41F4209102013091030148
:1011F0003093F9012093F801209100013091010111
:101200002115310541F42DB73EB7409104015091AD
:101210000501241B350BE091F801F091F901E2176B
:10122000F307A0F42E1B3F0B2817390778F0AC0109
:101230004E5F5F4F2417350748F04E0F5F1F5093E6
:10124000F9014093F801819391939FCFF0E0E0E0A2
:101250009CCFCF93DF930097E9F0FC013297138284
:101260001282A091FA01B091FB01ED0130E020E083
:101270001097A1F420813181820F931F2091F801F2
:101280003091F9012817390709F061C0F093F9018D
:10129000E093F801DF91CF910895EA01CE17DF07BF
:1012A000E8F54A815B819E0141155105B1F7E901DD
:1012B000FB83EA8349915991C40FD51FEC17FD07B1
:1012C00061F4808191810296840F951FE9019983D1
:1012D0008883828193819B838A83F0E0E0E0129689
:1012E0008D919C9113970097B9F52D913C91119791
:1012F000CD010296820F931F2091F8013091F901E0
:101300002817390739F6309751F51092FB011092E2
:10131000FA01B093F901A093F801BCCFD383C28343
:1013200040815181840F951FC817D90761F44E5F22
:101330005F4F88819981480F591F518340838A816B
:101340009B81938382832115310509F0B0CFF093FF
:10135000FB01E093FA019ECFFD01DC01C0CF1382B7
:101360001282D7CFB0E0A0E0E8EBF9E00C94E907F7
:101370008C01009751F4CB010E948D088C01C801AB
:10138000CDB7DEB7E0E10C940508FC01E60FF71FCE
:101390009C0122503109E217F30708F49DC0D901DE
:1013A000CD91DC911197C617D70798F0C530D105BC
:1013B00030F3CE0104978617970708F3C61BD70BA7
:1013C0002297C193D1936D937C93CF010E942909F9
:1013D000D6CF5B01AC1ABD0A4C018C0E9D1EA091AC
:1013E000FA01B091FB01512C412CF12CE12C10970A
:1013F00031F58091F8019091F9018815990509F06E
:101400005CC04616570608F058C0809100019091C4
:101410000101009741F48DB79EB7409104015091AE
:101420000501841B950BE817F90708F055C0F093E8
:10143000F901E093F801F90171836083A0CF8D91E8
:101440009C91119712966C90129713967C9013971B
:10145000A815B90559F56C0142E0C40ED11CCA1497
:10146000DB0420F1AC014A195B09DA0112961597E9
:1014700080F06282738251834083D9016D937C93A3
:10148000E114F10471F0D7011396FC93EE931297D7
:1014900076CF22968C0F9D1FF90191838083F301F3
:1014A000EFCFF093FB01E093FA0169CF481659069C
:1014B00008F42C017D01D3019ACFCB010E948D0845
:1014C0007C01009749F0AE01B8010E946F0AC80183
:1014D0000E942909870153CF10E000E050CFFB01A3
:1014E000DC0102C001900D9241505040D8F70895A0
:1014F000FB01DC018D91019080190110D9F3990B4A
:101500000895FB01DC0101900D920020E1F70895A0
:1015100010E0C2E6D0E004C0FE010E94510821960E
:10152000C336D107C9F7F894FFCF0000FC01800053
:10153000000000002D018D00BA007A01EB00C90007
:10154000DD000D0A0041726475696E6F00426972B8
:0415500064006600CD
:107800000C94343C0C94513C0C94513C0C94513CE1
:107810000C94513C0C94513C0C94513C0C94513CB4
:107820000C94513C0C94513C0C94513C0C94513CA4
:107830000C94513C0C94513C0C94513C0C94513C94
:107840000C94513C0C94513C0C94513C0C94513C84
:107850000C94513C0C94513C0C94513C0C94513C74
:107860000C94513C0C94513C11241FBECFEFD8E036
:10787000DEBFCDBF11E0A0E0B1E0ECE9FFE702C060
:1078800005900D92A230B107D9F712E0A2E0B1E065
:1078900001C01D92AD30B107E1F70E942D3D0C945F
:1078A000CC3F0C94003C982F959595959595959582
:1078B000905D8F708A307CF0282F295A8091C0000B
:1078C00085FFFCCF9093C6008091C00085FFFCCF60
:1078D0002093C6000895282F205DF0CF982F809127
:1078E000C00085FFFCCF9093C6000895EF92FF92F1
:1078F0000F931F93EE24FF2487018091C00087FD22
:1079000017C00894E11CF11C011D111D81E4E8164B
:1079100082E4F8068FE0080780E0180770F3E09132
:107920000401F091050109958091C00087FFE9CF1E
:107930008091C6001F910F91FF90EF9008950E94D3
:10794000763C982F8091C00085FFFCCF9093C600B5
:1079500091362CF490330CF09053892F089597555D
:10796000892F08951F930E949F3C182F0E949F3CCF
:107970001295107F810F1F9108951F93182F882350
:1079800021F00E94763C1150E1F71F9108951F935A
:10799000182F0E94763C803249F0809103018F5F5E
:1079A000809303018530C1F01F9108958091C0003C
:1079B00085FFFCCF84E18093C6008091C00085FFE5
:1079C000FCCF1093C6008091C00085FFFCCF80E102
:1079D0008093C6001F910895E0910401F091050184
:1079E00009951F9108950E94763C803241F0809164
:1079F00003018F5F80930301853081F008958091AA
:107A0000C00085FFFCCF84E18093C6008091C00058
:107A100085FFFCCF80E18093C6000895E0910401CA
:107A2000F09105010995089540E951E08823A1F0FE
:107A30002D9A28EE33E0FA013197F1F721503040CA
:107A4000D1F72D9828EE33E0FA013197F1F7215064
:107A50003040D1F7815061F708953F924F925F9285
:107A60006F927F928F929F92AF92BF92CF92DF924E
:107A7000EF92FF920F931F93CF93DF93000080E16B
:107A80008093C4001092C50088E18093C10086E015
:107A90008093C2005098589A259A81E00E94143D24
:107AA00024E1F22E9EE1E92E85E9D82E0FE0C02ECA
:107AB00010E1B12EAA24A394B1E49B2EA6E58A2E50
:107AC000F2E57F2EE0E26E2E79E4572E63E5462E36
:107AD00050E5352E0E94763C8033B1F18133B9F107
:107AE000803409F46FC0813409F476C0823409F41B
:107AF00085C0853409F488C0803531F1823521F1A3
:107B0000813511F1853509F485C0863509F48DC0BC
:107B1000843609F496C0843709F403C1853709F423
:107B200072C1863709F466C0809103018F5F80932C
:107B30000301853079F6E0910401F0910501099582
:107B40000E94763C803351F60E94F33CC3CF0E94E2
:107B5000763C803249F78091C00085FFFCCFF092DF
:107B6000C6008091C00085FFFCCF9092C600809136
:107B7000C00085FFFCCF8092C6008091C00085FFC9
:107B8000FCCF7092C6008091C00085FFFCCF609250
:107B9000C6008091C00085FFFCCF5092C600809146
:107BA000C00085FFFCCF4092C6008091C00085FFD9
:107BB000FCCF3092C6008091C00085FFFCCFB09210
:107BC000C60088CF0E94763C863808F4BDCF0E945C
:107BD000763C0E94F33C7ECF0E94763C803809F4CC
:107BE0009CC0813809F40BC1823809F43CC1883942
:107BF00009F48FC080E00E94C73C6CCF84E10E94F2
:107C0000BD3C0E94F33C66CF85E00E94BD3C0E94D3
:107C1000F33C60CF0E94763C809306010E94763C44
:107C2000809307010E94F33C55CF0E94763C80333D
:107C300009F41DC183E00E94BD3C80E00E94C73C66
:107C400049CF0E94763C809309020E94763C809343
:107C5000080280910C028E7F80930C020E94763C79
:107C6000853409F415C18091080290910902892B8D
:107C700089F000E010E00E94763CF801E85FFE4FDA
:107C800080830F5F1F4F80910802909109020817AF
:107C9000190788F30E94763C803209F045CF809125
:107CA0000C0280FF01C16091060170910701660F0F
:107CB000771F7093070160930601A0910802B091AD
:107CC00009021097C9F0E8E0F1E09B01AD014E0F09
:107CD0005F1FF999FECF32BD21BD819180BDFA9A17
:107CE000F99A2F5F3F4FE417F50799F76A0F7B1F4B
:107CF00070930701609306018091C00085FFFCCF5F
:107D0000F092C6008091C00085FFFCCFB092C60003
:107D1000E1CE83E00E94C73CDDCE82E00E94C73CFA
:107D2000D9CE0E94763C809309020E94763C8093D3
:107D300008028091060190910701880F991F909386
:107D40000701809306010E94763C853409F4A6C0A1
:107D500080910C028E7F80930C020E94763C8032D0
:107D600009F0B8CE8091C00085FFFCCFF092C6002C
:107D7000609108027091090261157105B9F140E046
:107D800050E080910C02A82FA170B82FB27011C0E2
:107D9000BB2309F45CC0E0910601F0910701319624
:107DA000F0930701E09306014F5F5F4F46175707B7
:107DB000E8F4AA2369F3F999FECF209106013091E6
:107DC000070132BD21BDF89A90B58091C00085FFB2
:107DD000FCCF9093C6002F5F3F4F30930701209355
:107DE00006014F5F5F4F4617570718F38091C00099
:107DF00085FDE5CE8091C00085FFF8CFE0CE81E023
:107E00000E94C73C67CE0E94763C803209F08CCE3F
:107E10008091C00085FFFCCFF092C6008091C00029
:107E200085FFFCCFE092C6008091C00085FFFCCFAB
:107E3000D092C6008091C00085FFFCCFC092C600E2
:107E40008091C00085FFFCCFB092C60043CEE09188
:107E50000601F091070194918091C00085FFFCCF4D
:107E60009093C6009CCF80E10E94C73C33CE0E9415
:107E7000763C0E94763C182F0E94763C112309F430
:107E800083C0113009F484C08FE00E94C73C22CE29
:107E900080910C02816080930C02E5CE80910C02EF
:107EA000816080930C0259CF809107018823880F4D
:107EB000880B8A2180930B02809106019091070123
:107EC000880F991F90930701809306018091080203
:107ED00080FF09C080910802909109020196909359
:107EE000090280930802F894F999FECF1127E091D6
:107EF0000601F0910701C8E0D1E08091080290915D
:107F00000902103091F40091570001700130D9F34B
:107F100003E000935700E89500915700017001308D
:107F2000D9F301E100935700E89509901990009169
:107F3000570001700130D9F301E000935700E89534
:107F40001395103498F011270091570001700130FB
:107F5000D9F305E000935700E895009157000170B0
:107F60000130D9F301E100935700E895329602976A
:107F700009F0C7CF103011F00296E5CF112480919F
:107F8000C00085FFB9CEBCCE8EE10E94C73CA2CD19
:0E7F900085E90E94C73C9ECDF894FFCF80008B
:00000001FF
